{
  "contractName": "DonationContract",
  "abi": [
    {
      "inputs": [],
      "stateMutability": "nonpayable",
      "type": "constructor"
    },
    {
      "inputs": [
        {
          "internalType": "uint256",
          "name": "",
          "type": "uint256"
        }
      ],
      "name": "donationHistory",
      "outputs": [
        {
          "internalType": "address",
          "name": "donor",
          "type": "address"
        },
        {
          "internalType": "uint256",
          "name": "amount",
          "type": "uint256"
        },
        {
          "internalType": "uint256",
          "name": "timestamp",
          "type": "uint256"
        }
      ],
      "stateMutability": "view",
      "type": "function",
      "constant": true
    },
    {
      "inputs": [
        {
          "internalType": "address",
          "name": "",
          "type": "address"
        }
      ],
      "name": "donations",
      "outputs": [
        {
          "internalType": "uint256",
          "name": "",
          "type": "uint256"
        }
      ],
      "stateMutability": "view",
      "type": "function",
      "constant": true
    },
    {
      "inputs": [],
      "name": "owner",
      "outputs": [
        {
          "internalType": "address",
          "name": "",
          "type": "address"
        }
      ],
      "stateMutability": "view",
      "type": "function",
      "constant": true
    },
    {
      "inputs": [],
      "name": "donate",
      "outputs": [],
      "stateMutability": "payable",
      "type": "function",
      "payable": true
    },
    {
      "inputs": [],
      "name": "withdraw",
      "outputs": [],
      "stateMutability": "nonpayable",
      "type": "function"
    },
    {
      "inputs": [],
      "name": "getBalance",
      "outputs": [
        {
          "internalType": "uint256",
          "name": "",
          "type": "uint256"
        }
      ],
      "stateMutability": "view",
      "type": "function",
      "constant": true
    },
    {
      "inputs": [],
      "name": "getDonationsHistory",
      "outputs": [
        {
          "components": [
            {
              "internalType": "address",
              "name": "donor",
              "type": "address"
            },
            {
              "internalType": "uint256",
              "name": "amount",
              "type": "uint256"
            },
            {
              "internalType": "uint256",
              "name": "timestamp",
              "type": "uint256"
            }
          ],
          "internalType": "struct DonationContract.Donation[]",
          "name": "",
          "type": "tuple[]"
        }
      ],
      "stateMutability": "view",
      "type": "function",
      "constant": true
    }
  ],
  "bytecode": "0x6080604052348015600f57600080fd5b5060008054600160a060020a03191633179055610599806100316000396000f3fe60806040526004361061008d576000357c0100000000000000000000000000000000000000000000000000000000900480638da5cb5b1161006b5780638da5cb5b146100ee5780639feeba6014610126578063cc6cb19a1461016b578063ed88c68e1461019857600080fd5b806312065fe0146100925780631397cf25146100b55780633ccfd60b146100d7575b600080fd5b34801561009e57600080fd5b5030315b6040519081526020015b60405180910390f35b3480156100c157600080fd5b506100ca6101a0565b6040516100ac9190610472565b3480156100e357600080fd5b506100ec610222565b005b3480156100fa57600080fd5b5060005461010e90600160a060020a031681565b604051600160a060020a0390911681526020016100ac565b34801561013257600080fd5b506101466101413660046104da565b6102d9565b60408051600160a060020a0390941684526020840192909252908201526060016100ac565b34801561017757600080fd5b506100a26101863660046104f3565b60026020526000908152604090205481565b6100ec610316565b60606001805480602002602001604051908101604052809291908181526020016000905b8282101561021957600084815260209081902060408051606081018252600386029092018054600160a060020a03168352600180820154848601526002909101549183019190915290835290920191016101c4565b50505050905090565b600054600160a060020a0316331461029b576040517f08c379a000000000000000000000000000000000000000000000000000000000815260206004820152601760248201527f4f6e6c79206f776e65722063616e20776974686472617700000000000000000060448201526064015b60405180910390fd5b60008054604051600160a060020a0390911691303180156108fc02929091818181858888f193505050501580156102d6573d6000803e3d6000fd5b50565b600181815481106102e957600080fd5b6000918252602090912060039091020180546001820154600290920154600160a060020a03909116925083565b60003411610380576040517f08c379a000000000000000000000000000000000000000000000000000000000815260206004820152601f60248201527f446f6e6174696f6e206d7573742062652067726561746572207468616e2030006044820152606401610292565b336000908152600260205260408120805434929061039f908490610523565b90915550506040805160608101825233815234602082019081524292820192835260018054808201825560009190915291517fb10e2d527612073b26eecdfd717e6a320cf44b4afac2b0732d9fcbe2b7fa0cf66003909302928301805473ffffffffffffffffffffffffffffffffffffffff1916600160a060020a03909216919091179055517fb10e2d527612073b26eecdfd717e6a320cf44b4afac2b0732d9fcbe2b7fa0cf782015590517fb10e2d527612073b26eecdfd717e6a320cf44b4afac2b0732d9fcbe2b7fa0cf890910155565b602080825282518282018190526000918401906040840190835b818110156104cf578351600160a060020a03815116845260208101516020850152604081015160408501525060608301925060208401935060018101905061048c565b509095945050505050565b6000602082840312156104ec57600080fd5b5035919050565b60006020828403121561050557600080fd5b8135600160a060020a038116811461051c57600080fd5b9392505050565b8082018082111561055d577f4e487b7100000000000000000000000000000000000000000000000000000000600052601160045260246000fd5b9291505056fea26469706673582212200fb33690b3a3f0c56bad9e1ef496e8774f7bd0e2e0a20233ad9a72f3967013b964736f6c634300081c0033",
  "immutableReferences": {},
  "source": "\n// pragma solidity ^0.8.28;\n\n// contract DonationContract {\n//     address public owner;\n//     mapping(address => uint) public donations;\n\n//     constructor() {\n//         owner = msg.sender;\n//     }\n\n//     function donate() public payable {\n//         require(msg.value > 0, \"Donation must be greater than 0\");\n//         donations[msg.sender] += msg.value;\n//     }\n\n//     function withdraw() public {\n//         require(msg.sender == owner, \"Only owner can withdraw\");\n//         payable(owner).transfer(address(this).balance);\n//     }\n\n//     function getBalance() public view returns (uint) {\n//         return address(this).balance;\n//     }\n// }\n\n\n// SPDX-License-Identifier: MIT\npragma solidity ^0.8.28;\n\ncontract DonationContract {\n    address public owner;\n\n    struct Donation {\n        address donor;\n        uint amount;\n        uint timestamp;\n    }\n\n    Donation[] public donationHistory;\n    mapping(address => uint) public donations;\n\n    constructor() {\n        owner = msg.sender;\n    }\n\n    function donate() public payable {\n        require(msg.value > 0, \"Donation must be greater than 0\");\n        donations[msg.sender] += msg.value;\n        \n        // Store donation details in history\n        donationHistory.push(Donation({\n            donor: msg.sender,\n            amount: msg.value,\n            timestamp: block.timestamp\n        }));\n    }\n\n    function withdraw() public {\n        require(msg.sender == owner, \"Only owner can withdraw\");\n        payable(owner).transfer(address(this).balance);\n    }\n\n    function getBalance() public view returns (uint) {\n        return address(this).balance;\n    }\n\n    function getDonationsHistory() public view returns (Donation[] memory) {\n        return donationHistory;\n    }\n}\n",
  "sourcePath": "C:\\project\\PM-Fund-Relief-Monitoring-system-main\\contracts\\DonationContract.sol",
  "compiler": {
    "name": "solc",
    "version": "0.8.28+commit.7893614a.Emscripten.clang"
  },
  "schemaVersion": "3.4.16",
  "updatedAt": "2025-03-14T15:59:54.019Z",
  "networkType": "ethereum",
  "devdoc": {
    "kind": "dev",
    "methods": {},
    "version": 1
  },
  "userdoc": {
    "kind": "user",
    "methods": {},
    "version": 1
  }
}